{
  "abi": [
    {
      "inputs": [],
      "stateMutability": "nonpayable",
      "type": "constructor"
    },
    {
      "inputs": [],
      "name": "InvalidShortString",
      "type": "error"
    },
    {
      "inputs": [
        {
          "internalType": "string",
          "name": "str",
          "type": "string"
        }
      ],
      "name": "StringTooLong",
      "type": "error"
    },
    {
      "anonymous": false,
      "inputs": [
        {
          "indexed": true,
          "internalType": "address",
          "name": "owner",
          "type": "address"
        },
        {
          "indexed": true,
          "internalType": "address",
          "name": "spender",
          "type": "address"
        },
        {
          "indexed": false,
          "internalType": "uint256",
          "name": "value",
          "type": "uint256"
        }
      ],
      "name": "Approval",
      "type": "event"
    },
    {
      "anonymous": false,
      "inputs": [
        {
          "indexed": true,
          "internalType": "address",
          "name": "delegator",
          "type": "address"
        },
        {
          "indexed": true,
          "internalType": "address",
          "name": "fromDelegate",
          "type": "address"
        },
        {
          "indexed": true,
          "internalType": "address",
          "name": "toDelegate",
          "type": "address"
        }
      ],
      "name": "DelegateChanged",
      "type": "event"
    },
    {
      "anonymous": false,
      "inputs": [
        {
          "indexed": true,
          "internalType": "address",
          "name": "delegate",
          "type": "address"
        },
        {
          "indexed": false,
          "internalType": "uint256",
          "name": "previousBalance",
          "type": "uint256"
        },
        {
          "indexed": false,
          "internalType": "uint256",
          "name": "newBalance",
          "type": "uint256"
        }
      ],
      "name": "DelegateVotesChanged",
      "type": "event"
    },
    {
      "anonymous": false,
      "inputs": [],
      "name": "EIP712DomainChanged",
      "type": "event"
    },
    {
      "anonymous": false,
      "inputs": [
        {
          "indexed": true,
          "internalType": "address",
          "name": "from",
          "type": "address"
        },
        {
          "indexed": true,
          "internalType": "address",
          "name": "to",
          "type": "address"
        },
        {
          "indexed": false,
          "internalType": "uint256",
          "name": "value",
          "type": "uint256"
        }
      ],
      "name": "Transfer",
      "type": "event"
    },
    {
      "inputs": [],
      "name": "CLOCK_MODE",
      "outputs": [
        {
          "internalType": "string",
          "name": "",
          "type": "string"
        }
      ],
      "stateMutability": "view",
      "type": "function"
    },
    {
      "inputs": [],
      "name": "DOMAIN_SEPARATOR",
      "outputs": [
        {
          "internalType": "bytes32",
          "name": "",
          "type": "bytes32"
        }
      ],
      "stateMutability": "view",
      "type": "function"
    },
    {
      "inputs": [
        {
          "internalType": "address",
          "name": "owner",
          "type": "address"
        },
        {
          "internalType": "address",
          "name": "spender",
          "type": "address"
        }
      ],
      "name": "allowance",
      "outputs": [
        {
          "internalType": "uint256",
          "name": "",
          "type": "uint256"
        }
      ],
      "stateMutability": "view",
      "type": "function"
    },
    {
      "inputs": [
        {
          "internalType": "address",
          "name": "spender",
          "type": "address"
        },
        {
          "internalType": "uint256",
          "name": "amount",
          "type": "uint256"
        }
      ],
      "name": "approve",
      "outputs": [
        {
          "internalType": "bool",
          "name": "",
          "type": "bool"
        }
      ],
      "stateMutability": "nonpayable",
      "type": "function"
    },
    {
      "inputs": [
        {
          "internalType": "address",
          "name": "account",
          "type": "address"
        }
      ],
      "name": "balanceOf",
      "outputs": [
        {
          "internalType": "uint256",
          "name": "",
          "type": "uint256"
        }
      ],
      "stateMutability": "view",
      "type": "function"
    },
    {
      "inputs": [
        {
          "internalType": "address",
          "name": "account",
          "type": "address"
        },
        {
          "internalType": "uint32",
          "name": "pos",
          "type": "uint32"
        }
      ],
      "name": "checkpoints",
      "outputs": [
        {
          "components": [
            {
              "internalType": "uint32",
              "name": "fromBlock",
              "type": "uint32"
            },
            {
              "internalType": "uint224",
              "name": "votes",
              "type": "uint224"
            }
          ],
          "internalType": "struct ERC20Votes.Checkpoint",
          "name": "",
          "type": "tuple"
        }
      ],
      "stateMutability": "view",
      "type": "function"
    },
    {
      "inputs": [],
      "name": "clock",
      "outputs": [
        {
          "internalType": "uint48",
          "name": "",
          "type": "uint48"
        }
      ],
      "stateMutability": "view",
      "type": "function"
    },
    {
      "inputs": [],
      "name": "decimals",
      "outputs": [
        {
          "internalType": "uint8",
          "name": "",
          "type": "uint8"
        }
      ],
      "stateMutability": "view",
      "type": "function"
    },
    {
      "inputs": [
        {
          "internalType": "address",
          "name": "spender",
          "type": "address"
        },
        {
          "internalType": "uint256",
          "name": "subtractedValue",
          "type": "uint256"
        }
      ],
      "name": "decreaseAllowance",
      "outputs": [
        {
          "internalType": "bool",
          "name": "",
          "type": "bool"
        }
      ],
      "stateMutability": "nonpayable",
      "type": "function"
    },
    {
      "inputs": [
        {
          "internalType": "address",
          "name": "delegatee",
          "type": "address"
        }
      ],
      "name": "delegate",
      "outputs": [],
      "stateMutability": "nonpayable",
      "type": "function"
    },
    {
      "inputs": [
        {
          "internalType": "address",
          "name": "delegatee",
          "type": "address"
        },
        {
          "internalType": "uint256",
          "name": "nonce",
          "type": "uint256"
        },
        {
          "internalType": "uint256",
          "name": "expiry",
          "type": "uint256"
        },
        {
          "internalType": "uint8",
          "name": "v",
          "type": "uint8"
        },
        {
          "internalType": "bytes32",
          "name": "r",
          "type": "bytes32"
        },
        {
          "internalType": "bytes32",
          "name": "s",
          "type": "bytes32"
        }
      ],
      "name": "delegateBySig",
      "outputs": [],
      "stateMutability": "nonpayable",
      "type": "function"
    },
    {
      "inputs": [
        {
          "internalType": "address",
          "name": "account",
          "type": "address"
        }
      ],
      "name": "delegates",
      "outputs": [
        {
          "internalType": "address",
          "name": "",
          "type": "address"
        }
      ],
      "stateMutability": "view",
      "type": "function"
    },
    {
      "inputs": [],
      "name": "eip712Domain",
      "outputs": [
        {
          "internalType": "bytes1",
          "name": "fields",
          "type": "bytes1"
        },
        {
          "internalType": "string",
          "name": "name",
          "type": "string"
        },
        {
          "internalType": "string",
          "name": "version",
          "type": "string"
        },
        {
          "internalType": "uint256",
          "name": "chainId",
          "type": "uint256"
        },
        {
          "internalType": "address",
          "name": "verifyingContract",
          "type": "address"
        },
        {
          "internalType": "bytes32",
          "name": "salt",
          "type": "bytes32"
        },
        {
          "internalType": "uint256[]",
          "name": "extensions",
          "type": "uint256[]"
        }
      ],
      "stateMutability": "view",
      "type": "function"
    },
    {
      "inputs": [
        {
          "internalType": "uint256",
          "name": "timepoint",
          "type": "uint256"
        }
      ],
      "name": "getPastTotalSupply",
      "outputs": [
        {
          "internalType": "uint256",
          "name": "",
          "type": "uint256"
        }
      ],
      "stateMutability": "view",
      "type": "function"
    },
    {
      "inputs": [
        {
          "internalType": "address",
          "name": "account",
          "type": "address"
        },
        {
          "internalType": "uint256",
          "name": "timepoint",
          "type": "uint256"
        }
      ],
      "name": "getPastVotes",
      "outputs": [
        {
          "internalType": "uint256",
          "name": "",
          "type": "uint256"
        }
      ],
      "stateMutability": "view",
      "type": "function"
    },
    {
      "inputs": [
        {
          "internalType": "address",
          "name": "account",
          "type": "address"
        }
      ],
      "name": "getVotes",
      "outputs": [
        {
          "internalType": "uint256",
          "name": "",
          "type": "uint256"
        }
      ],
      "stateMutability": "view",
      "type": "function"
    },
    {
      "inputs": [
        {
          "internalType": "address",
          "name": "spender",
          "type": "address"
        },
        {
          "internalType": "uint256",
          "name": "addedValue",
          "type": "uint256"
        }
      ],
      "name": "increaseAllowance",
      "outputs": [
        {
          "internalType": "bool",
          "name": "",
          "type": "bool"
        }
      ],
      "stateMutability": "nonpayable",
      "type": "function"
    },
    {
      "inputs": [
        {
          "internalType": "address",
          "name": "to",
          "type": "address"
        },
        {
          "internalType": "uint256",
          "name": "amount",
          "type": "uint256"
        }
      ],
      "name": "mint",
      "outputs": [],
      "stateMutability": "nonpayable",
      "type": "function"
    },
    {
      "inputs": [],
      "name": "name",
      "outputs": [
        {
          "internalType": "string",
          "name": "",
          "type": "string"
        }
      ],
      "stateMutability": "view",
      "type": "function"
    },
    {
      "inputs": [
        {
          "internalType": "address",
          "name": "owner",
          "type": "address"
        }
      ],
      "name": "nonces",
      "outputs": [
        {
          "internalType": "uint256",
          "name": "",
          "type": "uint256"
        }
      ],
      "stateMutability": "view",
      "type": "function"
    },
    {
      "inputs": [
        {
          "internalType": "address",
          "name": "account",
          "type": "address"
        }
      ],
      "name": "numCheckpoints",
      "outputs": [
        {
          "internalType": "uint32",
          "name": "",
          "type": "uint32"
        }
      ],
      "stateMutability": "view",
      "type": "function"
    },
    {
      "inputs": [
        {
          "internalType": "address",
          "name": "owner",
          "type": "address"
        },
        {
          "internalType": "address",
          "name": "spender",
          "type": "address"
        },
        {
          "internalType": "uint256",
          "name": "value",
          "type": "uint256"
        },
        {
          "internalType": "uint256",
          "name": "deadline",
          "type": "uint256"
        },
        {
          "internalType": "uint8",
          "name": "v",
          "type": "uint8"
        },
        {
          "internalType": "bytes32",
          "name": "r",
          "type": "bytes32"
        },
        {
          "internalType": "bytes32",
          "name": "s",
          "type": "bytes32"
        }
      ],
      "name": "permit",
      "outputs": [],
      "stateMutability": "nonpayable",
      "type": "function"
    },
    {
      "inputs": [],
      "name": "symbol",
      "outputs": [
        {
          "internalType": "string",
          "name": "",
          "type": "string"
        }
      ],
      "stateMutability": "view",
      "type": "function"
    },
    {
      "inputs": [],
      "name": "totalSupply",
      "outputs": [
        {
          "internalType": "uint256",
          "name": "",
          "type": "uint256"
        }
      ],
      "stateMutability": "view",
      "type": "function"
    },
    {
      "inputs": [
        {
          "internalType": "address",
          "name": "to",
          "type": "address"
        },
        {
          "internalType": "uint256",
          "name": "amount",
          "type": "uint256"
        }
      ],
      "name": "transfer",
      "outputs": [
        {
          "internalType": "bool",
          "name": "",
          "type": "bool"
        }
      ],
      "stateMutability": "nonpayable",
      "type": "function"
    },
    {
      "inputs": [
        {
          "internalType": "address",
          "name": "from",
          "type": "address"
        },
        {
          "internalType": "address",
          "name": "to",
          "type": "address"
        },
        {
          "internalType": "uint256",
          "name": "amount",
          "type": "uint256"
        }
      ],
      "name": "transferFrom",
      "outputs": [
        {
          "internalType": "bool",
          "name": "",
          "type": "bool"
        }
      ],
      "stateMutability": "nonpayable",
      "type": "function"
    }
  ],
  "bytecode": {
    "object": "0x6101606040523480156200001257600080fd5b506040518060400160405280600781526020016626bcaa37b5b2b760c91b81525080604051806040016040528060018152602001603160f81b8152506040518060400160405280600781526020016626bcaa37b5b2b760c91b815250604051806040016040528060038152602001624d544b60e81b81525081600390816200009b919062000295565b506004620000aa828262000295565b50620000bc915083905060056200016b565b61012052620000cd8160066200016b565b61014052815160208084019190912060e052815190820120610100524660a0526200015b60e05161010051604080517f8b73c3c69bb8fe3d512ecc4cf759cc79239f7b179b0ffacaa9a75d522b39400f60208201529081019290925260608201524660808201523060a082015260009060c00160405160208183030381529060405280519060200120905090565b60805250503060c05250620003d6565b60006020835110156200018b576200018383620001a4565b90506200019e565b8162000198848262000295565b5060ff90505b92915050565b600080829050601f81511115620001db578260405163305a27a960e01b8152600401620001d2919062000361565b60405180910390fd5b8051620001e882620003b1565b179392505050565b634e487b7160e01b600052604160045260246000fd5b600181811c908216806200021b57607f821691505b6020821081036200023c57634e487b7160e01b600052602260045260246000fd5b50919050565b601f8211156200029057600081815260208120601f850160051c810160208610156200026b5750805b601f850160051c820191505b818110156200028c5782815560010162000277565b5050505b505050565b81516001600160401b03811115620002b157620002b1620001f0565b620002c981620002c2845462000206565b8462000242565b602080601f831160018114620003015760008415620002e85750858301515b600019600386901b1c1916600185901b1785556200028c565b600085815260208120601f198616915b82811015620003325788860151825594840194600190910190840162000311565b5085821015620003515787850151600019600388901b60f8161c191681555b5050505050600190811b01905550565b600060208083528351808285015260005b81811015620003905785810183015185820160400152820162000372565b506000604082860101526040601f19601f8301168501019250505092915050565b805160208083015191908110156200023c5760001960209190910360031b1b16919050565b60805160a05160c05160e0516101005161012051610140516120a26200043160003960006106c90152600061069e0152600061101001526000610fe801526000610f4301526000610f6d01526000610f9701526120a26000f3fe608060405234801561001057600080fd5b506004361061018e5760003560e01c806370a08231116100de5780639ab24eb011610097578063c3cda52011610071578063c3cda5201461039c578063d505accf146103af578063dd62ed3e146103c2578063f1127ed8146103d557600080fd5b80639ab24eb014610363578063a457c2d714610376578063a9059cbb1461038957600080fd5b806370a08231146102d25780637ecebe00146102fb57806384b0196e1461030e5780638e539e8c1461032957806391ddadf41461033c57806395d89b411461035b57600080fd5b8063395093511161014b5780634bf5d7e9116101255780634bf5d7e91461024b578063587cde1e146102535780635c19a95c146102975780636fcfff45146102aa57600080fd5b806339509351146102105780633a46b1a81461022357806340c10f191461023657600080fd5b806306fdde0314610193578063095ea7b3146101b157806318160ddd146101d457806323b872dd146101e6578063313ce567146101f95780633644e51514610208575b600080fd5b61019b610412565b6040516101a89190611cf3565b60405180910390f35b6101c46101bf366004611d22565b6104a4565b60405190151581526020016101a8565b6002545b6040519081526020016101a8565b6101c46101f4366004611d4c565b6104be565b604051601281526020016101a8565b6101d86104e2565b6101c461021e366004611d22565b6104f1565b6101d8610231366004611d22565b610513565b610249610244366004611d22565b61059d565b005b61019b6105ab565b61027f610261366004611d88565b6001600160a01b039081166000908152600960205260409020541690565b6040516001600160a01b0390911681526020016101a8565b6102496102a5366004611d88565b610643565b6102bd6102b8366004611d88565b610650565b60405163ffffffff90911681526020016101a8565b6101d86102e0366004611d88565b6001600160a01b031660009081526020819052604090205490565b6101d8610309366004611d88565b610672565b610316610690565b6040516101a89796959493929190611da3565b6101d8610337366004611e39565b610719565b610344610780565b60405165ffffffffffff90911681526020016101a8565b61019b61078b565b6101d8610371366004611d88565b61079a565b6101c4610384366004611d22565b61081c565b6101c4610397366004611d22565b610897565b6102496103aa366004611e63565b6108a5565b6102496103bd366004611ebb565b6109db565b6101d86103d0366004611f25565b610b3f565b6103e86103e3366004611f58565b610b6a565b60408051825163ffffffff1681526020928301516001600160e01b031692810192909252016101a8565b60606003805461042190611f98565b80601f016020809104026020016040519081016040528092919081815260200182805461044d90611f98565b801561049a5780601f1061046f5761010080835404028352916020019161049a565b820191906000526020600020905b81548152906001019060200180831161047d57829003601f168201915b5050505050905090565b6000336104b2818585610bee565b60019150505b92915050565b6000336104cc858285610d12565b6104d7858585610d8c565b506001949350505050565b60006104ec610f36565b905090565b6000336104b28185856105048383610b3f565b61050e9190611fe2565b610bee565b600061051d610780565b65ffffffffffff1682106105745760405162461bcd60e51b815260206004820152601960248201527804552433230566f7465733a20667574757265206c6f6f6b757603c1b60448201526064015b60405180910390fd5b6001600160a01b0383166000908152600a602052604090206105969083611061565b9392505050565b6105a7828261114a565b5050565b6060436105b6610780565b65ffffffffffff161461060b5760405162461bcd60e51b815260206004820152601d60248201527f4552433230566f7465733a2062726f6b656e20636c6f636b206d6f6465000000604482015260640161056b565b5060408051808201909152601d81527f6d6f64653d626c6f636b6e756d6265722666726f6d3d64656661756c74000000602082015290565b61064d3382611154565b50565b6001600160a01b0381166000908152600a60205260408120546104b8906111cd565b6001600160a01b0381166000908152600760205260408120546104b8565b6000606080828080836106c47f00000000000000000000000000000000000000000000000000000000000000006005611236565b6106ef7f00000000000000000000000000000000000000000000000000000000000000006006611236565b60408051600080825260208201909252600f60f81b9b939a50919850469750309650945092509050565b6000610723610780565b65ffffffffffff1682106107755760405162461bcd60e51b815260206004820152601960248201527804552433230566f7465733a20667574757265206c6f6f6b757603c1b604482015260640161056b565b6104b8600b83611061565b60006104ec436112e1565b60606004805461042190611f98565b6001600160a01b0381166000908152600a60205260408120548015610809576001600160a01b0383166000908152600a60205260409020805460001983019081106107e7576107e7611ff5565b60009182526020909120015464010000000090046001600160e01b031661080c565b60005b6001600160e01b03169392505050565b6000338161082a8286610b3f565b90508381101561088a5760405162461bcd60e51b815260206004820152602560248201527f45524332303a2064656372656173656420616c6c6f77616e63652062656c6f77604482015264207a65726f60d81b606482015260840161056b565b6104d78286868403610bee565b6000336104b2818585610d8c565b834211156108f55760405162461bcd60e51b815260206004820152601d60248201527f4552433230566f7465733a207369676e61747572652065787069726564000000604482015260640161056b565b604080517fe48329057bfd03d55e49b547132e39cffd9c1820ad7b9d4c5307691425d15adf60208201526001600160a01b03881691810191909152606081018690526080810185905260009061096f906109679060a00160405160208183030381529060405280519060200120611348565b858585611375565b905061097a8161139d565b86146109c85760405162461bcd60e51b815260206004820152601960248201527f4552433230566f7465733a20696e76616c6964206e6f6e636500000000000000604482015260640161056b565b6109d28188611154565b50505050505050565b83421115610a2b5760405162461bcd60e51b815260206004820152601d60248201527f45524332305065726d69743a206578706972656420646561646c696e65000000604482015260640161056b565b60007f6e71edae12b1b97f4d1f60370fef10105fa2faae0126114a169c64845d6126c9888888610a5a8c61139d565b6040805160208101969096526001600160a01b0394851690860152929091166060840152608083015260a082015260c0810186905260e0016040516020818303038152906040528051906020012090506000610ab582611348565b90506000610ac582878787611375565b9050896001600160a01b0316816001600160a01b031614610b285760405162461bcd60e51b815260206004820152601e60248201527f45524332305065726d69743a20696e76616c6964207369676e61747572650000604482015260640161056b565b610b338a8a8a610bee565b50505050505050505050565b6001600160a01b03918216600090815260016020908152604080832093909416825291909152205490565b60408051808201909152600080825260208201526001600160a01b0383166000908152600a60205260409020805463ffffffff8416908110610bae57610bae611ff5565b60009182526020918290206040805180820190915291015463ffffffff8116825264010000000090046001600160e01b0316918101919091529392505050565b6001600160a01b038316610c505760405162461bcd60e51b8152602060048201526024808201527f45524332303a20617070726f76652066726f6d20746865207a65726f206164646044820152637265737360e01b606482015260840161056b565b6001600160a01b038216610cb15760405162461bcd60e51b815260206004820152602260248201527f45524332303a20617070726f766520746f20746865207a65726f206164647265604482015261737360f01b606482015260840161056b565b6001600160a01b0383811660008181526001602090815260408083209487168084529482529182902085905590518481527f8c5be1e5ebec7d5bd14f71427d1e84f3dd0314c0f7b2291e5b200ac8c7c3b925910160405180910390a3505050565b6000610d1e8484610b3f565b90506000198114610d865781811015610d795760405162461bcd60e51b815260206004820152601d60248201527f45524332303a20696e73756666696369656e7420616c6c6f77616e6365000000604482015260640161056b565b610d868484848403610bee565b50505050565b6001600160a01b038316610df05760405162461bcd60e51b815260206004820152602560248201527f45524332303a207472616e736665722066726f6d20746865207a65726f206164604482015264647265737360d81b606482015260840161056b565b6001600160a01b038216610e525760405162461bcd60e51b815260206004820152602360248201527f45524332303a207472616e7366657220746f20746865207a65726f206164647260448201526265737360e81b606482015260840161056b565b6001600160a01b03831660009081526020819052604090205481811015610eca5760405162461bcd60e51b815260206004820152602660248201527f45524332303a207472616e7366657220616d6f756e7420657863656564732062604482015265616c616e636560d01b606482015260840161056b565b6001600160a01b03848116600081815260208181526040808320878703905593871680835291849020805487019055925185815290927fddf252ad1be2c89b69c2b068fc378daa952ba7f163c4a11628f55a4df523b3ef910160405180910390a3610d868484846113ca565b6000306001600160a01b037f000000000000000000000000000000000000000000000000000000000000000016148015610f8f57507f000000000000000000000000000000000000000000000000000000000000000046145b15610fb957507f000000000000000000000000000000000000000000000000000000000000000090565b6104ec604080517f8b73c3c69bb8fe3d512ecc4cf759cc79239f7b179b0ffacaa9a75d522b39400f60208201527f0000000000000000000000000000000000000000000000000000000000000000918101919091527f000000000000000000000000000000000000000000000000000000000000000060608201524660808201523060a082015260009060c00160405160208183030381529060405280519060200120905090565b8154600090818160058111156110bb57600061107c846113d5565b611086908561200b565b600088815260209020909150869082015463ffffffff1611156110ab578091506110b9565b6110b6816001611fe2565b92505b505b808210156111085760006110cf83836114bd565b600088815260209020909150869082015463ffffffff1611156110f457809150611102565b6110ff816001611fe2565b92505b506110bb565b8015611134576000868152602090208101600019015464010000000090046001600160e01b0316611137565b60005b6001600160e01b03169695505050505050565b6105a782826114d8565b6001600160a01b038281166000818152600960208181526040808420805485845282862054949093528787166001600160a01b03198416811790915590519190951694919391928592917f3134e8a2e6d97e929a7e54011ea5485d7d196dd5f0ba4d4ef95803e8e3fc257f9190a4610d86828483611562565b600063ffffffff8211156112325760405162461bcd60e51b815260206004820152602660248201527f53616665436173743a2076616c756520646f65736e27742066697420696e203360448201526532206269747360d01b606482015260840161056b565b5090565b606060ff8314611250576112498361169f565b90506104b8565b81805461125c90611f98565b80601f016020809104026020016040519081016040528092919081815260200182805461128890611f98565b80156112d55780601f106112aa576101008083540402835291602001916112d5565b820191906000526020600020905b8154815290600101906020018083116112b857829003601f168201915b505050505090506104b8565b600065ffffffffffff8211156112325760405162461bcd60e51b815260206004820152602660248201527f53616665436173743a2076616c756520646f65736e27742066697420696e203460448201526538206269747360d01b606482015260840161056b565b60006104b8611355610f36565b8360405161190160f01b8152600281019290925260228201526042902090565b6000806000611386878787876116de565b91509150611393816117a2565b5095945050505050565b6001600160a01b03811660009081526007602052604090208054600181018255905b50919050565b505050565b6113c58383836118ec565b6000816000036113e757506000919050565b600060016113f48461191e565b901c6001901b9050600181848161140d5761140d61201e565b048201901c905060018184816114255761142561201e565b048201901c9050600181848161143d5761143d61201e565b048201901c905060018184816114555761145561201e565b048201901c9050600181848161146d5761146d61201e565b048201901c905060018184816114855761148561201e565b048201901c9050600181848161149d5761149d61201e565b048201901c9050610596818285816114b7576114b761201e565b046119b2565b60006114cc6002848418612034565b61059690848416611fe2565b6114e282826119c8565b6002546001600160e01b0310156115545760405162461bcd60e51b815260206004820152603060248201527f4552433230566f7465733a20746f74616c20737570706c79207269736b73206f60448201526f766572666c6f77696e6720766f74657360801b606482015260840161056b565b610d86600b611a8f83611a9b565b816001600160a01b0316836001600160a01b0316141580156115845750600081115b156113c5576001600160a01b03831615611612576001600160a01b0383166000908152600a6020526040812081906115bf90611c1085611a9b565b91509150846001600160a01b03167fdec2bacdd2f05b59de34da9b523dff8be42e5e38e818c82fdb0bae774387a7248383604051611607929190918252602082015260400190565b60405180910390a250505b6001600160a01b038216156113c5576001600160a01b0382166000908152600a60205260408120819061164890611a8f85611a9b565b91509150836001600160a01b03167fdec2bacdd2f05b59de34da9b523dff8be42e5e38e818c82fdb0bae774387a7248383604051611690929190918252602082015260400190565b60405180910390a25050505050565b606060006116ac83611c1c565b604080516020808252818301909252919250600091906020820181803683375050509182525060208101929092525090565b6000807f7fffffffffffffffffffffffffffffff5d576e7357a4501ddfe92f46681b20a08311156117155750600090506003611799565b6040805160008082526020820180845289905260ff881692820192909252606081018690526080810185905260019060a0016020604051602081039080840390855afa158015611769573d6000803e3d6000fd5b5050604051601f1901519150506001600160a01b03811661179257600060019250925050611799565b9150600090505b94509492505050565b60008160048111156117b6576117b6612056565b036117be5750565b60018160048111156117d2576117d2612056565b0361181f5760405162461bcd60e51b815260206004820152601860248201527f45434453413a20696e76616c6964207369676e61747572650000000000000000604482015260640161056b565b600281600481111561183357611833612056565b036118805760405162461bcd60e51b815260206004820152601f60248201527f45434453413a20696e76616c6964207369676e6174757265206c656e67746800604482015260640161056b565b600381600481111561189457611894612056565b0361064d5760405162461bcd60e51b815260206004820152602260248201527f45434453413a20696e76616c6964207369676e6174757265202773272076616c604482015261756560f01b606482015260840161056b565b6001600160a01b038381166000908152600960205260408082205485841683529120546113c592918216911683611562565b600080608083901c1561193357608092831c92015b604083901c1561194557604092831c92015b602083901c1561195757602092831c92015b601083901c1561196957601092831c92015b600883901c1561197b57600892831c92015b600483901c1561198d57600492831c92015b600283901c1561199f57600292831c92015b600183901c156104b85760010192915050565b60008183106119c15781610596565b5090919050565b6001600160a01b038216611a1e5760405162461bcd60e51b815260206004820152601f60248201527f45524332303a206d696e7420746f20746865207a65726f206164647265737300604482015260640161056b565b8060026000828254611a309190611fe2565b90915550506001600160a01b038216600081815260208181526040808320805486019055518481527fddf252ad1be2c89b69c2b068fc378daa952ba7f163c4a11628f55a4df523b3ef910160405180910390a36105a7600083836113ca565b60006105968284611fe2565b82546000908190818115611ae85760008781526020902082016000190160408051808201909152905463ffffffff8116825264010000000090046001600160e01b03166020820152611afd565b60408051808201909152600080825260208201525b905080602001516001600160e01b03169350611b1d84868863ffffffff16565b9250600082118015611b475750611b32610780565b65ffffffffffff16816000015163ffffffff16145b15611b8c57611b5583611c44565b60008881526020902083016000190180546001600160e01b03929092166401000000000263ffffffff909216919091179055611c06565b866040518060400160405280611bb0611ba3610780565b65ffffffffffff166111cd565b63ffffffff168152602001611bc486611c44565b6001600160e01b0390811690915282546001810184556000938452602093849020835194909301519091166401000000000263ffffffff909316929092179101555b5050935093915050565b6000610596828461200b565b600060ff8216601f8111156104b857604051632cd44ac360e21b815260040160405180910390fd5b60006001600160e01b038211156112325760405162461bcd60e51b815260206004820152602760248201527f53616665436173743a2076616c756520646f65736e27742066697420696e20326044820152663234206269747360c81b606482015260840161056b565b6000815180845260005b81811015611cd357602081850181015186830182015201611cb7565b506000602082860101526020601f19601f83011685010191505092915050565b6020815260006105966020830184611cad565b80356001600160a01b0381168114611d1d57600080fd5b919050565b60008060408385031215611d3557600080fd5b611d3e83611d06565b946020939093013593505050565b600080600060608486031215611d6157600080fd5b611d6a84611d06565b9250611d7860208501611d06565b9150604084013590509250925092565b600060208284031215611d9a57600080fd5b61059682611d06565b60ff60f81b881681526000602060e081840152611dc360e084018a611cad565b8381036040850152611dd5818a611cad565b606085018990526001600160a01b038816608086015260a0850187905284810360c0860152855180825283870192509083019060005b81811015611e2757835183529284019291840191600101611e0b565b50909c9b505050505050505050505050565b600060208284031215611e4b57600080fd5b5035919050565b803560ff81168114611d1d57600080fd5b60008060008060008060c08789031215611e7c57600080fd5b611e8587611d06565b95506020870135945060408701359350611ea160608801611e52565b92506080870135915060a087013590509295509295509295565b600080600080600080600060e0888a031215611ed657600080fd5b611edf88611d06565b9650611eed60208901611d06565b95506040880135945060608801359350611f0960808901611e52565b925060a0880135915060c0880135905092959891949750929550565b60008060408385031215611f3857600080fd5b611f4183611d06565b9150611f4f60208401611d06565b90509250929050565b60008060408385031215611f6b57600080fd5b611f7483611d06565b9150602083013563ffffffff81168114611f8d57600080fd5b809150509250929050565b600181811c90821680611fac57607f821691505b6020821081036113bf57634e487b7160e01b600052602260045260246000fd5b634e487b7160e01b600052601160045260246000fd5b808201808211156104b8576104b8611fcc565b634e487b7160e01b600052603260045260246000fd5b818103818111156104b8576104b8611fcc565b634e487b7160e01b600052601260045260246000fd5b60008261205157634e487b7160e01b600052601260045260246000fd5b500490565b634e487b7160e01b600052602160045260246000fdfea264697066735822122032b44ccc3dd127bf92058caa504b384de0c9b07f9aa557ca4cdcfc011dabb4a964736f6c63430008140033",
    "linkReferences": {}
  },
  "methodIdentifiers": {
    "CLOCK_MODE()": "4bf5d7e9",
    "DOMAIN_SEPARATOR()": "3644e515",
    "allowance(address,address)": "dd62ed3e",
    "approve(address,uint256)": "095ea7b3",
    "balanceOf(address)": "70a08231",
    "checkpoints(address,uint32)": "f1127ed8",
    "clock()": "91ddadf4",
    "decimals()": "313ce567",
    "decreaseAllowance(address,uint256)": "a457c2d7",
    "delegate(address)": "5c19a95c",
    "delegateBySig(address,uint256,uint256,uint8,bytes32,bytes32)": "c3cda520",
    "delegates(address)": "587cde1e",
    "eip712Domain()": "84b0196e",
    "getPastTotalSupply(uint256)": "8e539e8c",
    "getPastVotes(address,uint256)": "3a46b1a8",
    "getVotes(address)": "9ab24eb0",
    "increaseAllowance(address,uint256)": "39509351",
    "mint(address,uint256)": "40c10f19",
    "name()": "06fdde03",
    "nonces(address)": "7ecebe00",
    "numCheckpoints(address)": "6fcfff45",
    "permit(address,address,uint256,uint256,uint8,bytes32,bytes32)": "d505accf",
    "symbol()": "95d89b41",
    "totalSupply()": "18160ddd",
    "transfer(address,uint256)": "a9059cbb",
    "transferFrom(address,address,uint256)": "23b872dd"
  },
  "id": 60
}